:1000000021C045C044C043C042C009C240C03FC037
:100010003EC03DC03CC03BC03AC039C038C0000003
:10002000000036000000000037000000000038002B
:100030000202020202020102040810200102000072
:100040000400FA0211241FBECFE5D2E0DEBFCDBF0F
:1000500010E0A0E6B0E0E6EBF6E002C005900D92FD
:10006000AA36B107D9F720E0AAE6B0E001C01D9298
:10007000A839B207E1F710E0C2E2D0E003C021974F
:10008000FE010DD3C132D107D1F713D212C3B8CFBD
:10009000813021F48AB58F778ABD0895823019F4B2
:1000A0008AB58F7DF9CF833021F480B78F7D80BFF3
:1000B0000895843019F48CB58F7D8CBD08951F93FD
:1000C000CF93DF93282F30E0F901E45CFF4F849158
:1000D000F901EA5CFF4FD491F901E05DFF4FC49153
:1000E000CC23A1F0162F8111D3DFEC2FF0E0EE0F1F
:1000F000FF1FE65DFF4FA591B4918FB711110AC0A4
:10010000F894EC91D095DE23DC938FBFDF91CF91F3
:100110001F910895F894EC91DE2BF6CFCF93DF93E7
:1001200087FF09C08F7771F1813071F1823071F1F1
:10013000833071F18FEF90E0FC01EA5CFF4F249176
:10014000805D9F4FFC0184918823C9F090E0880F67
:10015000991FFC01EC5DFF4FA591B491FC01E65D98
:10016000FF4FC591D491611115C09FB7F8948C9140
:10017000209582238C938881282328839FBFDF9139
:10018000CF91089585E0D7CF82E0D5CF84E0D3CF5B
:1001900083E0D1CF623051F49FB7F8943C91822F25
:1001A000809583238C93E8812E2BE7CF8FB7F8942B
:1001B000EC912E2B2C938FBFE2CF3FB7F894809118
:1001C0006F0090917000A0917100B091720022B701
:1001D00008B601FE05C02F3F19F00196A11DB11D03
:1001E0003FBFBA2FA92F982F8827BC01CD01620FDE
:1001F000711D811D911D43E0660F771F881F991F98
:100200004A95D1F70895CF92DF92EF92FF92CF9364
:10021000DF936B017C01D1DFEB01C114D104E10458
:10022000F10441F412C081E0C81AD108E108F108D4
:10023000C851DC4FC2DF6C1B7D0B683E734068F316
:10024000C114D104E104F10471F7DF91CF91FF9063
:10025000EF90DF90CF9008952FB7F89460916B00E6
:1002600070916C0080916D0090916E002FBF089589
:10027000862F642F53CFCF93DF93FC01218927FF73
:1002800009C02F7749F1213049F1223049F123305B
:1002900049F12FEF30E0F901E45CFF4F8491F9015F
:1002A000EA5CFF4FD491F901E05DFF4FC491CC238C
:1002B00071F08111EDDEEC2FF0E0EE0FFF1FE25E3A
:1002C000FF4FA591B491EC91ED2381E009F480E01A
:1002D0008170DF91CF91089525E0DCCF22E0DACF65
:1002E00024E0D8CF23E0D6CFCF93DF93EC0118865C
:1002F000C2DF882319F0888583608887ADDF6A8331
:100300007B838C839D83DF91CF910895CF92DF9281
:10031000EF92FF920F931F93CF93DF93EC018885A9
:100320008B7F8887CE01A7DF182F888586958170FF
:100330001817B1F091DF6A837B838C839D83888556
:1003400092E089278887888582FB882780F9DF915A
:10035000CF911F910F91FF90EF90DF90CF90089574
:100360007BDFCA80DB80EC80FD80AB01BC014C19D7
:100370005D096E097F098E819F81B0E0A0E048177A
:1003800059076A077B07F8F2888581701817D9F238
:1003900063DF6A837B838C839D83888591E08927D3
:1003A0008460888759DF09851A852B853C85601B09
:1003B000710B820B930B6D877E878F87988B4CDF39
:1003C00069877A878B879C87BECF0F931F93CF93C4
:1003D000DF938C0161E080E072DE61E084E06FDE3B
:1003E000C0916000D0916100CE01B80120D1BC0164
:1003F000990F880B990B07DF60E080E060DE60E01A
:1004000084E05DDEBE0168527109072E000C880B86
:10041000990BDF91CF911F910F91F5CE46D11F928D
:100420000F920FB60F9211242F933F938F939F93A8
:10043000AF93BF9380916B0090916C00A0916D0081
:10044000B0916E0030916A0026E0230F2D3768F1DD
:1004500029E8230F0396A11DB11D20936A00809304
:100460006B0090936C00A0936D00B0936E00809130
:100470006F0090917000A0917100B0917200019690
:10048000A11DB11D80936F0090937000A093710027
:10049000B0937200BF91AF919F918F913F912F9137
:1004A0000F900FBE0F901F9018950296A11DB11DC1
:1004B000D4CF81B781BF78948AB582608ABD8AB56E
:1004C00081608ABD83B7887F836083BF789489B752
:1004D000826089BF80B7807F80BF80B7806880BF1F
:1004E00080B7806480BF8CB580648CBD8FEF8DBD7C
:1004F00080B7876080BF86B18877866886B9379A6B
:100500001092730060E083E009DE62E081E006DEC5
:1005100062E082E003DE61E084E000DE60E084E02F
:10052000CEDD61E080E0FADD60E080E0C8DD60ED16
:1005300077E080E090E067DE61E080E0C0DD60EDC4
:1005400077E080E090E05FDE60E080E0B8DD81E0B1
:100550008093970086E890E0C7DEC5E0D0E0D093B6
:100560008D00C0938C0082E08093850084E790E04A
:10057000BBDED0937B00C0937A0068EB7BE080E029
:1005800090E041DE83E087B997B180917300880FD6
:10059000880F8071892B87B9369A3699FECF94B12E
:1005A00085B18927982789272091600030916100C3
:1005B000820F931F66E070E04BD0709361006093F0
:1005C000600086E890E0A2DE84E790E09FDE809104
:1005D0008E0080FD05C082FF03C081E090E0F5DE63
:1005E00080917C0080FDEDCF82FFEBCF83E090E037
:1005F000ECDEE7CFE6E8F0E0128213821482158287
:100600002AE030E037832683108686E690E09183E7
:100610008083118AE4E7F0E012821382148215824B
:1006200037832683108691838083118A089500245E
:10063000552704C0080E591F880F991F009729F0ED
:1006400076956795B8F37105B9F7802D952F0895C4
:1006500097FB072E16F4009406D077FD08D00BD038
:1006600007FC05D03EF4909581959F4F08957095B5
:1006700061957F4F0895AA1BBB1B51E107C0AA1FBC
:10068000BB1FA617B70710F0A61BB70B881F991F33
:100690005A95A9F780959095BC01CD010895EE0F6C
:1006A000FF1F0590F491E02D099481E090E0F8940B
:0606B00000C0F894FFCF2A
:0A06B6007D00000000003B01380148
:00000001FF
